:10000000F7C0000012C1000010C100000EC10000C6
:100010000CC100000C94142608C1000025C6000085
:1000200004C1000002C100000C94D01A0C94F82501
:100030000C9406260C94AA1AF8C00000F6C0000022
:100040000C94D125F2C00000F0C00000EEC000000A
:10005000ECC000000AC60000E8C00000E6C00000D6
:10006000E4C00000E2C000000000140029003E00CF
:100070005300690080009700AE00C600DF00F80062
:1000800012012D01490165018201A001BE01DE01BD
:10009000FF012102440268028E02B502DE0209035A
:1000A000350364039403C803FE0337047304B404E4
:1000B000F90443059305EA054906B3062907AE0787
:1000C0004808FF08DE09B903870358032E03070316
:1000D000E402C302A40288024E6F742063616C695B
:1000E0006272617465642120466F72FF63616C699E
:1000F00062726174696F6E20636C616D70207468E8
:10010000652033FF70696E7320746F67657468656E
:100110007220616E642073746172742077697468F0
:1001200020746865FF6B65792E2041636B6E6F7775
:100130006C65646765207468652073656C662D74F2
:10014000657374207769746820746865206B6579BD
:100150002077697468696EFF32732E204469736377
:100160006F6E6E6563742070696E7320616674656E
:100170007220746865FF6D6573736167652022691D
:10018000736F6C617465FF50726F62652122206924
:10019000732073686F776E2E20536F667477617269
:1001A0006520616E6420646F63756D656E74617443
:1001B000696F6E2069732061742073766E3A2F2FF9
:1001C000206D696B726F636F6E74726F6C6C6572A9
:1001D0002E206E65742F7472616E736973746F7202
:1001E000207465737465722000010410010204001C
:1001F00011241FBECFEFD8E0DEBFCDBF12E0A0E0DC
:10020000B2E001C01D92A23CB107E1F712E0A0E00C
:10021000B1E0EEEAFDE702C005900D92A030B10713
:10022000D9F70E94D10A0C94D53EEACE80FD5C9AA3
:1002300080FF5C98549A00005D9A559A5898599896
:100240005A985B9864FD589A509A65FD599A519A4C
:1002500066FD5A9A529A67FD5B9A539A00005D9820
:100260000ED387FD10C05D9A589859985A985B989C
:1002700060FD589A61FD599A62FD5A9A63FD5B9A36
:1002800000005D98FCC208958091420280930002B4
:100290008091A9028093020208950895682F80E05A
:1002A000C5DFE4C260934202813019F4862F805486
:1002B00002C0862F8058F2CF809102026091000226
:1002C000F1CF80EDEBDF83E08093A9021092420230
:1002D000089580E9E3DF82E08093A9021092420250
:1002E000089580ECDBDF81E08093A9021092420246
:1002F00008951092A90280E8D1DF10924202089579
:1003000081E0CCDF82E0BED2F4CF682F8091420240
:100310008F5F8093420281E089DFA8C20F931F9311
:10032000CF93DF938C01C0E0D0E0C8018C0F9D1FFC
:100330000E94973EEADF2196C830D105B1F7DF91E0
:10034000CF911F910F91089584E19CD283E3A6DFA2
:1003500082E3A4DF82E096D280E2A0DF80E29EDF2B
:100360008AE29CDF88E09ADF86E098DF82E096DF11
:10037000C7DF81E087D28CE091DF88E48FDF8BEEEE
:1003800092E0CCDF80E58ADF83EF92E0C7DF88E58B
:1003900085DF83EE92E0C2DF88E780DF8BEF92E0BB
:1003A000BDDF80E77BDF83E093E0B8DF80E476DFCA
:1003B0008BE093E0B3CFCF93DF93EC01CE010E94AB
:1003C000973E882329F0803819F09FDF2196F6CFD9
:1003D000DF91CF9108950F9389EC91E0ECDF40918C
:1003E0008D024D3F64F460917B0270917C0280919C
:1003F0007D0290917E0226E403E008D102C08FE3E3
:1004000084DF0F910895CF93DF93EC01FE01849177
:10041000882329F0803819F078DF2196F7CFDF9113
:10042000CF910895CF93DF93EC0102C06EDF219648
:1004300088818823D9F7DF91CF9108958DE365CF27
:1004400080E263CF1F93182F02C0FADF11501116FC
:10045000E4F31F9108959091420280E1891BF2CF4D
:1004600040DFF9DF3ECF45DFF6DF43CF1F93182F84
:10047000F2DF8091A9028F5F8093A902823030F071
:1004800081E08093A9028093450202C01092450248
:100490008091A902612F06DF1F9108958F5C35CFEF
:1004A000E5DF44C397FF09C08F939F938DE22DDF53
:1004B0009F918F91909581959F4F68E272E04AE0FD
:1004C00050E00E94833EAECFEDDF01C0EBDFB8CF3E
:1004D000EF92FF920F931F93182F062FF42E87EDA4
:1004E00091E069DFEE24E0914302F09144028685B9
:1004F000E81611F4812F09C08485E81611F4802FC5
:1005000004C08585E81611F48F2DFFDEE3948E2D4F
:10051000833049F71F910F91FF90EF900895682F56
:1005200080E092E0662309F491E0623009F481E012
:1005300008950F93082FEAEAF2E0880F880FE80F7A
:10054000F11D60817181828193816436710581051D
:10055000910570F42091010227FD0AC0802FDFDF92
:10056000692F0E9479236EEF23E044EF57D104C036
:100570004FEF04E024EF4AD063DF0F9108958630F7
:1005800058F4EDE9F2E0E80FF11DE80FF11D80816C
:10059000918163E038D154CF08951F93182F809133
:1005A0007602882319F04CDF80E0AFDE9ADE82EE1F
:1005B00091E001DF812F82958F70E1DF812F8F70B5
:1005C000DEDF1F910895CF93DF9380910D02829516
:1005D0008F70C1E9D2E0C80FD11D88815FDF8CE147
:1005E00092E0E9DE8E815ADF8CE192E0E4DEC1E93F
:1005F000D2E080910D028370C80FD11D8E814EDF35
:1006000080910D02CADFDF91CF910895AEE0B0E096
:10061000ECE0F3E00C942B3E142F422E602E9B0155
:10062000AC0169017A017FE0772E702280E3898333
:100630008A838B838C838D838E83F7FE0BC08DE240
:1006400064DEF094E094D094C094C11CD11CE11CF1
:10065000F11C04C005FF02C08BE257DE83E0781670
:1006600009F4BCC094E0791639F460E1862E67E2A3
:10067000962EA12CB12C3CC0A5E07A1641F450EA8C
:10068000852E56E8952E51E0A52EB12C31C0B6E04E
:100690007B1641F440E4842E42E4942E4FE0A42ED5
:1006A000B12C26C087E0781641F430E8832E36E975
:1006B000932E38E9A32EB12C1BC024E6822E912C58
:1006C000A12CB12C15C085E090E0A0E0B0E0C80EF0
:1006D000D91EEA1EFB1EC701B6012AE030E040E049
:1006E00050E00E94EC3DC901DA016C017D011F5F01
:1006F000C814D904EA04FB0430F7812F8F5E63E04D
:100700000E94B93DA82E86E0811B0E94B93DB92EFA
:100710008E01095F1F4FC701B601A8012AE030E032
:100720000E94603EF80101900020E9F731971E2FEA
:10073000101BC12EDD248B2D90E004968C159D0599
:100740001CF4A39493E0B90E8A2D90E08D5E9C4F2B
:100750000E94973E582E64FE05C0171518F4872D89
:10076000811B01C080E0F12EFB18F80E1F1424F04D
:100770008EE2CBDD8B2D811BBB2011F498EFF92E7F
:10078000EE2490E05C01AC0CBD1C06E010E0081B00
:10079000190B4E010894811C911CCF2CDD24C7FC41
:1007A000D0940EC0E80DF91DE00FF11F8081ADDD82
:1007B000E3948E2D90E08C159D0511F48EE2A5DD5D
:1007C000EE2DF0E0EA15FB056CF3552011F0852DB8
:1007D0009CDD442051F0842D98DD07C088EE882EE2
:1007E00083E0982EA12CB12C83CF2E96E0E10C94BF
:1007F000473E0F93042F40E028E408DF8AE785DDB9
:100800001FDE0F9108950F93062FA0E0B0E0BC010A
:10081000CD014DEF26E5FADE0F9108950F93362FA7
:10082000542F022FA0E0B0E0BC01CD01432F252FB3
:10083000EDDE0F910895089503D002D001D000D0CD
:1008400000D003D002D001D000D000D003D002D01D
:1008500001D000D000D0A89503D002D001D000D0A4
:1008600000D003D002D001D000D000D003D002D0FD
:1008700001D000D000D003D002D001D000D000D0F1
:100880000000089590E0893C28F0885C48EC849F43
:10089000C0011124009709F4089520918100277068
:1008A00019F0D9DF0197F6CF8130910519F0029741
:1008B0003CE803C03EE380E090E02091B200230FCB
:1008C0002093B30042E04093700027E023BF889557
:1008D00026E023BF10927000A895DCCF8F9384E0B0
:1008E000D1DF07C08F9382E0CDDF03C08F9381E01B
:1008F000C9DF8F911F93182F106410937C00E12F94
:10090000E07880913302E81759F0E0933302ADDFCD
:100910008FE980937A0083E083BF889582E083BF6C
:1009200020E030E0A901E0E01FC08FE980937A0069
:1009300083E083BF889582E083BF609178007091E7
:100940007900260F371F411D511DE43061F480915D
:100950003502803041F084E02030380720F417FD64
:1009600002C01068CACFEF5F80913202E817E8F248
:10097000609136027091370217FF04C06091340213
:100980007091350280E090E00E949A3D2FEF33E0B5
:1009900040E050E00E94EC3DB901CA0120913202D2
:1009A00030E040E050E00E94EC3DC9011F91089505
:1009B00089B190E023E0969587952A95E1F7282F55
:1009C00021704999226080911802843050F08EE0A5
:1009D00080931402209315021092190281E08093F3
:1009E000180290911802E92FF0E0EC5EFD4FE081D3
:1009F000E21741F12223E9F49D5F892F8370935020
:100A0000E23039F5E82FF0E0EC5EFD4F8081833075
:100A100081F4809119028F5F0AC0E82FF0E0EC5E4C
:100A2000FD4F8081833029F4809119028150809399
:100A30001902E92FEF5FE370E0931802F0E0EC5E3B
:100A4000FD4F20838091190287FD819580931A02C2
:100A50000895E13071F7E1CFA0E0B0E0E2E3F5E026
:100A60000C94323E6C0153985198FADE10921902A0
:100A7000E0911802F0E03196E370F070EC5EFD4F0B
:100A800080EF808304E611C093DF4F9906C0ECDE4F
:100A90001F5F1931C9F7015040F4E60100E045E558
:100AA000E42EFF24BB24B39439C010E0EDCF10E056
:100AB0007FDFDADE1F5F1233D9F78E2D880F4F9B51
:100AC0008F5F3FE3E32EE8228FE3E81641F4002333
:100AD00011F4E60104E00F5F063928F021C0EE2092
:100AE00011F40023E9F4A8951C161D0624F42A9796
:100AF00011F4CFEFDFEF80911A02882339F0F394DD
:100B000080917702882311F4B092770284E18F15E7
:100B100028F480911902882319F4FF24D7FFC7CF46
:100B2000802FCDB7DEB7E9E00C944E3E1F93ACDBCF
:100B3000182F809145028823F1F0813049F411305B
:100B400039F46FE0AFDB8BE2E0DB81E06FE0AADB42
:100B500080E49FE181DF882321F480911A028823B9
:100B6000B9F7113039F480914502813019F460E011
:100B700099DB71DCA1DB1F91089581E090E00E9478
:100B8000973E382F82E090E00E94973E20913A02F3
:100B9000230F30913B02381F20931D0230931E0219
:100BA00083E0283E380720F0C901885E934002C0E8
:100BB00080E090E062E370E00E94C53D683008F09C
:100BC00067E0E6ECF0E0E60FF11DE60FF11D459160
:100BD00055912591359162E3681B421B530B649F2D
:100BE000C001659F900D1124499662E370E00E9458
:100BF000C53D620F731F70937A026093790280E0A3
:100C000090E00E94973E992787FD909560913A0267
:100C100070913B02860F971F9093350280933402A8
:100C200090937502809374020895CF93DF9324E12B
:100C300030E0B9010E94C53DDC01E8E6F0E0E60FD6
:100C4000F71FE60FF71FC591D591459155914C1BA4
:100C50004A9FC0011124B9010E94C53D6C0F7D1F40
:100C6000CB01DF91CF91089518951895109221022C
:100C700010921F0210926F021092550210922002E1
:100C8000109241021092760210925A0210925B0268
:100C900010925C0210928B0282E080938C02109280
:100CA000010210928A021092890210927F02109221
:100CB0008002109281021092820281EF80938E0254
:100CC0000895EF92FF920F931F93CF93DF93E62E39
:100CD000E82FF0E0E451FE4FE491E8B9E7B915B828
:100CE000E62FF0E0E751FE4FE491E4B908E813E1A4
:100CF000FE2EFF0C8E2DF2DDEC01F4B8801791076B
:100D000010F48C01F7CF0097D9F080E192E053DB2B
:100D1000BE0180E090E020EA36E841E050E00E9429
:100D20009A3D28E937EB40E050E00E94EC3DDA01C3
:100D3000C90167EF41E422E071DD17B818B814B8B3
:100D4000CDB7DEB7E6E00C94513E80913E02882399
:100D500069F483E090E00E94973E682F6F5F86E021
:100D600090E00E94A43E81E080933E0208951F938C
:100D7000CF93DF93162F17B818B8E82FF0E0E7519C
:100D8000FE4F949195B9262F281B332727FD3095C8
:100D9000E20FF31FE491E92BE4B9ACDDEC01812F04
:100DA000A9DDBC0120913602309137023695279596
:100DB000A90143505040CE014E964817590780F480
:100DC000255E3F4FC217D30758F4CB014E96481704
:100DD000590730F480E06217730718F481E001C00E
:100DE00080E014B8DF91CF911F9108950F931F9366
:100DF00080E061E0BCDF082F80E062E0B8DF182F00
:100E000081E062E0B4DF100F810F1F910F91089510
:100E10005E9880E090E020CEAEE0B0E0E2E1F7E066
:100E20000C94293E10922102C82EDD24807F89F483
:100E3000DDDF833009F0B1C363DA87EE90E0BBDA1F
:100E400050DA8FE362DA80ED97E006DE8B30D0F483
:100E500014C010E000E054DA83E991E0ACDAC6DFB8
:100E6000833011F010E003C01F5F143058F488E2A3
:100E700009DD0F5F063979F76CC042DA84E492E04D
:100E80009ADA8BC32EDA0E94101E82E992E093DA7E
:100E900089E290E060E00E94A43E8AE290E060E097
:100EA0000E94A43E88E290E060E00E94A43E82E0BE
:100EB00060E00E9479239A83898382E061E00E9446
:100EC00079239C838B8381E060E00E9479238C01ED
:100ED0009E838D83E980FA80C7016EEF40E223E0B4
:100EE0009DDC8B819C816EEF40E223E097DCC801A2
:100EF0006EEF44EF23E092DC2AE5E216F10424F0E1
:100F000084E190E09A83898389E290E069810E947C
:100F1000A43E8B819C818A35910524F084E190E088
:100F20009C838B838AE290E06B810E94A43E8D813A
:100F30009E818A35910524F084E190E09E838D8323
:100F400088E290E06D810E94A43E82E08093450299
:100F5000EDDD1FE0812E912C8C209D2081E08816F4
:100F6000910409F041C1B1E0AB2EB12CA2E06A2E90
:100F7000F8E07F2EE0E25E2E2EC172DA74DA84E5AC
:100F8000C4D9C5019ADA5CDA91E0D916A9F48EE5E4
:100F900092E011DA80913A0290913B0264E033DCF6
:100FA000A0D983E692E007DA8091790290917A02E3
:100FB00084DA20923202F4C0E2E0DE1689F5609114
:100FC00036027091370280E090E028E53BE140E096
:100FD00050E00E949A3D24EC36E340E050E00E944D
:100FE0000E3E79018A0181E085B9F5E0F4B980E02F
:100FF00075DC8E199F099A83898321E124B980E0E9
:101000006DDC8E199F099C838B8345B834B881E0D1
:1010100065DC8E199F099E838D8380E792E0AFC0C7
:1010200083E0D81659F565B89AE094B980E056DCAB
:1010300020913602309137023695279538872F83D5
:10104000821B930B9A838983E2E2E4B980E046DC59
:101050009C018F819885281B390B3C832B8375B8A5
:10106000F8E2F4B981E03ADC9C018F819885281B75
:10107000390B3E832D838EE792E081C024E0D216A7
:1010800051F487EF90E097D9B1DE882309F47CC052
:1010900062E0C62E79C085E0D81699F415B864B818
:1010A00080E01CDC9A83898374B881E017DC9C8320
:1010B0008B8354B882E012DC9E838D8388E692E0B5
:1010C0005EC096E0D91639F564B865B880E006DCF4
:1010D0002091360230913702821B930B9A838983C9
:1010E00074B875B881E0FADB20913602309137028E
:1010F000821B930B9C838B8354B855B882E0EEDB44
:101100002091360230913702821B930B9E838D8390
:101110008CE692E034C0E7E0DE1699F56091360285
:101120007091370280E090E028E53BE140E050E03C
:101130000E949A3D28EB32ED47E450E00E94EC3DDE
:1011400079018A0165B8F3E0F4B980E0C7DB8E1954
:101150009F099A83898375B82CE024B981E0BEDBAE
:101160008E199F099C838B8355B880E384B982E0F4
:10117000B5DB8E199F099E838D838CE892E01BD985
:1011800003C091E0D91661F0ACD889819A818AD9DF
:1011900057D98B819C8186D953D98D819E8182D9E3
:1011A00017B818B814B815B888EE93E055DCE4E029
:1011B000DE1611F08B3028F4C394F3E0FC1508F030
:1011C000DCCE88EE93E048DC0894A11CB11C28E03A
:1011D000A216B10449F0CC24DA2C54E0452E44E1A7
:1011E000342E3EEB232EC9CE10E000DE882349F0DA
:1011F00037D987EF90E0DFD884E644DB1F5F1837EC
:10120000A1F77ED886E992E0D6D8809138029091F5
:1012100039026FEF44EF23E001DB63D88DE992E000
:10122000CAD880913F02909140026FEF44EF23E0D3
:10123000F5DA82E08093450279DC1092210260D8D1
:1012400084EA92E0B8D882E060E00E94F21A8091CD
:101250008302909184029C878B8782E061E00E94E8
:10126000F21A80918302909184029E878D8781E09B
:1012700060E00E94F21A80918302909184029E8322
:101280008D8380E062E00E94F21A80918302909147
:1012900084029C838B8381E062E00E94F21A809139
:1012A0008302909184029A87898780E061E00E949E
:1012B000F21A20918302309184023A83298381E0DB
:1012C0008816910421F080913E02823029F42E5F2D
:1012D0003F4F38872F8307C038872F8310923E02F5
:1012E0008CE00E944E018B859C85F0D88D859E8573
:1012F000EDD86D817E81882777FD8095982F44EF0A
:1013000026E403E083D96E010894C11CD11C760148
:101310009E01215F3F4FF701808191810A97853BB4
:101320009105E8F482E090E0E80EF91EE216F3067B
:1013300091F703E010E0F60160816E5EC8010E9443
:10134000A43E82E090E0C80ED91E0F5F1F4FCE145E
:10135000DF0489F70E94710187EA91E02CD882E0CE
:1013600080934502E3DB0E94C53291E08916910427
:1013700029F080913E02823009F0F8C0EE24FF246B
:101380002BE7C22E22E0D22E71DC0E94800180E089
:1013900085D880EF91E00FD882E080D88BE193E090
:1013A0000AD81092210282E060E00E94F21A609155
:1013B0007B0270917C0280917D0290917E0210915F
:1013C0008D020BC02AE030E040E050E00E94EC3D8E
:1013D000C901DA01BC01CD011F5F173F9CF3609387
:1013E0007B02F60171838283938310938D02173FF2
:1013F00009F0A5C0603671058105910508F49FC00C
:10140000605F75458040904008F099C060918F0200
:10141000709190022FEF6B3672070CF490C0663912
:1014200071050CF08CC0F39484E08F1508F088C02F
:1014300081E090E00E94B23E0E94800183E293E04E
:101440000E94DB0180918F02909190022BD895DB56
:1014500018B881E087B980E284B982E04BDA855D13
:101460009340DCF714B8109235021092340282E0F7
:1014700041DA9A83898380917402909175029093E6
:1014800035028093340282E035DA9C01220F331F4B
:101490003C832B83109235021092340282E02ADAC8
:1014A0009E838D83209174023091750230933502B2
:1014B00020933402EB80FC8069817A816E197F0968
:1014C000680F791F882777FD8095982F40E050E0BE
:1014D0000E949A3D0027F7FC0095102FA801970164
:1014E0000E940E3E022F0E9471018AE293E00E9448
:1014F000DB0180E090E00E94973E182F1D5F100FE7
:1015000080E090E0612F0E94A43E812F992787FD03
:1015100090950E94520231DB82E08093450206DB07
:1015200010923E028CE00E944E0183E090E00E9407
:10153000973E682F86E090E00E94A43E17C0FF24EB
:101540000E94710160917B0270917C0280917D020A
:1015500090917E0240918D0226E404E057D888E203
:1015600091D9E394F0E4EF1609F00ECF89E180936E
:1015700032020E9440330E94800184E492E00E9483
:10158000DB010E94710187E091E00E94DB01109273
:10159000210282E080934502C9DA2E96E2E10C94A2
:1015A000453EA0E0B0E0E7EDFAE00C942D3E80E48B
:1015B0008AB98BB987E880937A001092C10041D92B
:1015C00014B784B7877F84BF88E10FB6F8948093FF
:1015D0006000109260000FBE86E88093640088E38C
:1015E00080937E001092B00087E08093B1007894E1
:1015F0000E94A40113FF10C00E9479018EED90E0BB
:101600000E94DB018BEC3ED903DC80E090E0CDB79B
:10161000DEB7EEE00C94493E80E185BF84E0809324
:10162000180210E04F9905C082E02CD91F5F1C33CF
:10163000C9F78FE59DE690931302809312021F3144
:1016400030F080E69DE69093130280931202109290
:1016500033020E94101E2FE088E190E00FB6F8944C
:10166000A895809360000FBE209360001C3320F08B
:101670000E94C92B8823E1F700E1702E10E1612E52
:10168000B6E48B2EB2E09B2EA0E6AA2EA2E0BA2EE4
:101690000E94800117B8EADA0E94101E0E947901A8
:1016A00084E492E00E94DB0180914102882329F1C9
:1016B0000E9471018AEF91E00E94DB018091360265
:1016C0009091370263E09FD888EC16C00E943002E8
:1016D00086E192E00E94DB0117B883E007D99C0104
:1016E000F3E0880F991FFA95E1F7220F331F820F5D
:1016F000931F63E088D88CE3C5D84F9BE7CF0E9447
:1017000071010E94EA1980912102893019F50E9425
:10171000800184EF91E00E94DB010E9471018091C1
:1017200003029091040263E06ED80E94200280912F
:1017300005029091060263E066D80E942002809123
:1017400007029091080263E05ED88AEC9BD881E1A1
:1017500063DB09C58CE00E944E0186E090E00E94A8
:10176000973E182F83E090E00E94973E181B10933D
:101770003E02112319F08EE00E944E0180E04CDB06
:101780000E94710185E890E00E94DB0180E061E049
:1017900042E07AD581E060E042E076D580E062E028
:1017A00041E072D582E060E041E06ED581E062E028
:1017B00040E06AD582E061E040E066D58091210298
:1017C000882389F483E40E9485010E94EA1982E05B
:1017D00060E00E94F21A82E061E00E94F21A81E069
:1017E00060E00E94F21A80912102833061F48091BE
:1017F0001F02823041F490919102809192029817D9
:1018000011F40E9417300E9480019092440280924D
:10181000430280912102863041F480EB90E00E94E7
:10182000DB0183E467E441E417C0873041F48AEACE
:1018300090E00E94DB0181E367E442E30DC08A305F
:10184000E9F48CE493E00E94DB01B0924402A092A0
:10185000430281E467E443E40E9468020E9471014C
:1018600082EE91E00E94DB01E0914302F09144029C
:101870008481958162E00E94030475C4823009F07E
:1018800040C088E493E00E94DB0181E365E442E329
:101890000E94680280E00E94360260915402E62FA6
:1018A000F0E080915302E65AFD4FE80FF11D3197A9
:1018B00010820E94C31780915402E0915302F0E01D
:1018C000E80FF11DEE0FFF1FEE0FFF1FEA55FD4F52
:1018D00060817181828193814FEF24EF02E00E9449
:1018E000060382E493E00E94DB0160915002709154
:1018F000510280E090E040E025E203E00E94060310
:1019000032C4883081F420918C0280918B0290E067
:10191000820F911D029719F40E94B11F3EC480E00E
:101920000E94181F20C4833009F009C180911F0252
:10193000813009F05CC090919102809197029817D4
:1019400050F4892F0E944E028CE192E00E94DB014C
:101950008091970208C00E944E0280E292E00E94AD
:10196000DB01809191020E944E028091970260916A
:101970009102A7D980E70E94CD02809197026091E1
:10198000910240E00E94D83160937B0270937C0208
:1019900080937D0290937E0280E00E9450026091CD
:1019A0007B0270917C0280917D0290917E0242EFD9
:1019B00026E402E00E9406038DE20E9485018091E8
:1019C00097026091910241E00E94D83160937B02BE
:1019D00070937C0280937D0290937E0242EF26E416
:1019E0000E94060385E292E00E94DB0134C482304B
:1019F00009F046C082E30E94850185E392E00E94DF
:101A0000DB018091910230919202831799F48091C9
:101A100097020E944E0280E292E00E94DB018091D8
:101A200091020E944E028CE192E00E94DB018091C3
:101A3000980216C090919702209198029217A1F4F3
:101A40000E944E028CE192E00E94DB01809197029D
:101A50000E944E0280E292E00E94DB01809192029D
:101A60000E944E0281E087CF931721F481E080939A
:101A70000D024CC0281709F04CC060920D0246C000
:101A8000833009F046C083E380930D029091970262
:101A900080919202981719F481E080930D02909141
:101AA000910280919802981711F460920D02909122
:101AB000970280919302981719F482E080930D02A7
:101AC0009091910280919902981719F480E2809385
:101AD0000D029091980280919302981719F482E177
:101AE00080930D029091920280919902981719F4B7
:101AF00081E280930D0280910D02823250F483E3E3
:101B00000E94850185E392E00E94DB010E94E302CE
:101B1000A2C385EA90E00E94DB0189EB90E00E947D
:101B2000DB010E94710182ED90E00E94DB01809157
:101B30001F02805D0E9485018CE192E00FC384301A
:101B400009F08EC180916F02882309F467C08091EB
:101B50005502882309F462C08091540260915202B8
:101B60000E94F21AC0907B02D0907C02E0907D022D
:101B7000F0907E0210918D0280916C0260916E0255
:101B80000E94F21A20914602309147024091480289
:101B900050914902243F61E0360760E0460760E06B
:101BA000560770F48091600290916102A0916202E8
:101BB000B0916302845F9140A040B04008F010EF04
:101BC0008091600290916102A0916202B0916302E3
:101BD000845F9140A040B04040F4245F31404040D9
:101BE000504018F080EF80938D0280918D0218177D
:101BF00071F480917B0290917C02A0917D02B09162
:101C00007E02C816D906EA06FB0618F004C01817AB
:101C100014F48DE001C08CE08093200280916F026B
:101C2000882361F080915502882341F04F9906C0C6
:101C30008091200291E089278093200280912002E8
:101C40008C3051F48FEC91E00E94DB0180916F02A7
:101C5000882389F080E70DC0B0924402A09243022D
:101C600083ED91E00E94DB0180915502882319F0F9
:101C70008EE60E9485010E94200220911F02A09101
:101C80004302B0914402E1E9F2E010E02EC01C965C
:101C90009C911C978081891731F18681891719F1F0
:101CA000809120028C3049F420E030E09091530282
:101CB00080915402891758F408C020E030E09091D8
:101CC0006D0280916E02981710F421E030E0E22E50
:101CD000222319F08CE192E002C080E292E00E949F
:101CE000DB01F12E07C01F5F3196121780F2EE2440
:101CF00064E1F62E85E462E443E40E9468020E94F7
:101D0000710186EC91E00E94DB01E0914302F091C9
:101D1000440260817181828193814EEF20E003E073
:101D20000E9406030E94200289E40E948501E0913E
:101D30004302F0914402868197818051974270F06E
:101D400085E60E948501E0914302F091440286817C
:101D50009781805197429783868303C083E60E94D0
:101D600085010E941E02E0914302F09144028681A7
:101D700097816AEF41E422E00E940E0480E00E9415
:101D800050028DED91E00E94DB01E0914302F09161
:101D900044028481958163E00E940304E091430240
:101DA000F091440280859185892B91F080E00E941A
:101DB000500282E592E00E94DB01E0914302F09143
:101DC0004402808591856AEF41E423E00E940E047D
:101DD000E0914302F091440282859385892B91F032
:101DE00080E00E94500288E592E00E94DB01E091D1
:101DF0004302F0914402828593856AEF41E423E037
:101E00000E940E04F4E0FF1508F4ADC180E00E94CA
:101E100050020F2D10E0EE2069F00F561D4FF80113
:101E200080810E944E028CE192E00E94DB01F80169
:101E300086810CC00F561D4FF80186810E944E020C
:101E400080E292E00E94DB01F80180810E944E0254
:101E50000E94200282EE91E00E94DB018F2DE0C003
:101E6000853009F0E0C08091200284FF08C080E541
:101E70000E948501B0924402A092430203C08EE406
:101E80000E9485018DE20E94850180912002182F19
:101E90001F70143019F48BEB91E013C085FF02C062
:101EA00084E401C085E40E948501133041F480EC94
:101EB00091E00E94DB0185E467E443E407C086EB20
:101EC00091E00E94DB0183E567E444E40E9468023C
:101ED00080911F02813011F010E018C08091200223
:101EE00084FF09C020E030E090916D0280916E0285
:101EF000981758F408C020E030E090915302809188
:101F00005402891710F421E030E0122F8091200252
:101F100090E085FD2CC00E947101E0914302F09198
:101F20004402848566850E94F21A0E94EB0186EEC7
:101F300091E00E94DB01E0914302F091440282852E
:101F4000938562E00E94030480E00E9450028EEDBF
:101F500092E00E94DB01E0914302F091440284810F
:101F600095816FEF44EF22E00E940E0431C08F7024
:101F70009070049769F080E00E943602E09143027D
:101F8000F0914402848566850E94F21A0E94EB015A
:101F900080E00E94500289E40E9485010E941E0296
:101FA000E0914302F0914402868197816AEF41E417
:101FB00022E00E940E048BEE91E00E94DB01E09192
:101FC0004302F09144028285938562E00E940304FB
:101FD00080911F02813009F0C6C080E00E9450024B
:101FE000112359F0809191020E944E028CE192E0FF
:101FF0000E94DB01809197020AC0809197020E94A3
:102000004E0280E292E00E94DB01809191020E94E8
:102010004E020E94200282EE91E00E94DB0180E0ED
:102020000E94BF02A0C000917602002309F48AC07A
:102030000130B1F480915D020E948F02282F692F38
:1020400080915D02813039F480911F02882319F458
:102050000E94E120A2C0822F40E00E94312083C074
:1020600070915D0260915E02A62FB0E0AA0FBB1FC7
:10207000AA0FBB1FA655BD4FE72FF0E0EE0FFF1FC5
:10208000EE0FFF1FE655FD4F2D913D914D915C9157
:1020900080819181A281B38182179307A407B5073C
:1020A00010F4162F01C0172F023029F4172F1195A5
:1020B000161B1D5F20C060915F02A62FB0E0AA0F23
:1020C000BB1FAA0FBB1FA655BD4FE12FF0E0EE0FBF
:1020D000FF1FEE0FFF1FE655FD4F2D913D914D91D6
:1020E0005C9180819181A281B38182179307A407BB
:1020F000B50708F4162FF12EF694112311F401E020
:1021000001C002E08F2D0E944E028AE392E00E94FD
:10211000DB0182E0811B0E944E028AE392E00E9472
:10212000DB01802F0E944E0280E00E94360280E098
:10213000112309F481E00E94990282E08F190E9424
:10214000990211C082EC90E00E94DB010E947101B3
:102150008CE990E00E94DB0185EA90E00E94DB01BF
:1021600000E41FE104C0009112021091130277B83D
:102170004F9BFECFC8010E942C05823320F4909122
:102180001A02933028F00E94C92B8823E1F780CAF5
:10219000882309F07DCA992369F78CE00E944E01DB
:1021A00080913E02882309F453C0C0E0D0E092E061
:1021B000D92E3FC00491003209F4C82E8F5F3196AA
:1021C0008131C1F7DD2039F480E197E20E942C05CE
:1021D000882309F039C01D2D1170D0FC02C00E9467
:1021E0008001812F60E00E945201802F00E011C029
:1021F000F7011491112341F11F3F19F40E942002AD
:1022000003C0812F0E9485010F5F0894E11CF11C1F
:10221000812F0C1568F38823B9F0CC0DD11DFE0178
:10222000E852FF4FE491E03209F42196D394F1E0B3
:10223000DF2288EDE82E80E0F82EEC0EFD1EF7017F
:1022400080E000E1C02EB6CF80E197E20E942C052D
:102250000E9408071DCA80917602882309F483CF63
:1022600077B880911202909113020E942C0517B842
:102270000E94800180911F02805D0E94850185E39C
:1022800092E00E94DB01CFCEA8E1B0E0EAE4F1E108
:102290000C94293E8C8B6D8B4E8BA895E62FF0E02D
:1022A000E751FE4F3491388B339644914F875E89C6
:1022B000E52FF0E0E751FE4F84918E87880F898BE0
:1022C0009C89E92FF0E0E751FE4FA491AD8733964A
:1022D000B491BC87EE85E5B9E32BEB8BE4B9B7B9D4
:1022E000B8B98D890E9476049D838C838989FE8587
:1022F0008F2B85B929893889232B2A8B24B98D897D
:102300000E9476046C01488944B98D890E94760444
:102310009F838E8314B80E942B0415B85B8954B92F
:102320008D890E9476049C018C819D812817390734
:1023300060F5205E3E4F8217930708F442C59F85E3
:1023400097B918B8AD85A5B98A2FBE858B2B84B9EE
:10235000E0913602F0913702FD83EC838C890E9474
:1023600076042C813D81281B390B3D832C833D85D0
:1023700034B9C0903602D09037028C890E9476041E
:10238000C81AD90ADF82CE8208C08C819D81805E06
:102390009E4F2817390708F414C530915502209133
:1023A0006F02832F90E0820F911D029754F031301D
:1023B00009F007C59091520280916C02981709F0BC
:1023C00000C54C815D814437510508F4BAC0CA018B
:1023D000880F991F4496AE81BF81A817B90708F0EE
:1023E000B0C0BC85B7B9B8B9EA89E4B98D890E9493
:1023F00072047C018E890E947A048C01F989F5B9F6
:102400008D890E9472049701295A3D4F49895D8543
:10241000452B2817390708F03FC018B88F8587B9B2
:1024200044B945B98E890E94720488549F4028F0AF
:1024300085E08093210282E204C085E0809321023E
:1024400084E280932002F0924B02E0924A020E1541
:102450001F0540F4C701801B910B9093510280939C
:10246000500204C01092510210925002B70180E055
:1024700090E020E137E240E050E00E949A3D209158
:102480001B0230911C0240E050E00E94EC3D309372
:102490004D0220934C028DC418B8BF85B7B944B91A
:1024A00045B98C890E9472048C018E890E947A043D
:1024B0007C01ED85E5B98C890E947204895A9D4F93
:1024C0008017910708F07DC4FC85F8B9F7B98E89AB
:1024D0000E947204815D934028F485E0809321027C
:1024E00082E304C085E08093210284E3809320028C
:1024F0000E151F0538F4E01AF10AF0926B02E09213
:102500006A0204C010926B0210926A026091360255
:1025100070913702601B710B80E090E020E137E2A0
:1025200040E050E00E949A3D209122023091230227
:1025300040E050E00E94EC3D309367022093660239
:10254000E8C118B83F8537B94D8545B95E85452B3B
:102550004B8344B98C890E9476049B878A87E090DC
:102560003602F09037028E890E947A042C018AE0AC
:102570004816510448F514B881E00E944204898944
:102580009D85892B84B98C890E9476049B878A87D4
:102590002090360230903702281A390A8E890E941C
:1025A0007A042C01710100E010E0209122023091A8
:1025B000230240E050E060E871EA83E09CE10E9481
:1025C000EC3DC801B7010EC01701AA85BB852A1AC8
:1025D0003B0AB1016419750980E090E024E630E01F
:1025E00040E050E00E949A3D920140E050E00E949D
:1025F000EC3DC901DA014C015D0114B815B8BC8588
:10260000B8B9B7B981E00E944204E9EBCE16E7E021
:10261000DE0608F0D6C3FB89F4B98D890E947604E2
:102620008F559D4008F47BC114B881E00E9442049C
:102630003B8934B981E00E9442044A8944B98D89BA
:102640000E9476046C018E890E947A043C018C8978
:102650000E947A04988F8F8B51ED651657E07506AE
:1026600008F4DEC0898985B98D890E947204805082
:10267000944068F08AE080932102EF89F88DE61992
:10268000F709F0936502E093640221E059C484E005
:10269000809321028DE0809320022E813F812C15B2
:1026A0003D0510F0760105C076014E815F81E41A88
:1026B000F50A00E010E020911B0230911C0240E07E
:1026C00050E060E871EA83E09CE10E94EC3DC801C3
:1026D000B7010E949A3D930140E050E00E94EC3D1A
:1026E00079018A0180916F02882379F080916002DC
:1026F00090916102A0916202B09163028E159F05D4
:10270000A007B10710F020E026C0E0926002F0922E
:1027100061020093620210936302B60180E090E0D0
:1027200020E137E240E050E00E949A3D20911B02F8
:1027300030911C0240E050E00E94EC3D3093670273
:10274000209366028F89988D861997099093650268
:102750008093640221E08091600290916102A091D7
:102760006202B091630288159905AA05BB0540F580
:102770008092600290926102A0926202B092630223
:10278000AA85BB85A419B509B0936502A09364021C
:10279000B10180E090E020E137E240E050E00E94AB
:1027A0009A3D209122023091230240E050E00E94A5
:1027B000EC3D205F384D309367022093660203C0E2
:1027C000222309F4BDC3EE81FF81BF0180E090E0C8
:1027D00020E137E240E050E00E949A3DE0901B0289
:1027E000F0901C0200E010E0A80197010E94EC3D6F
:1027F00030936902209368022C813D81B90180E009
:1028000090E020E137E240E050E00E949A3DA801CC
:1028100097010E94EC3D30936B0220936A0235CF02
:102820004E815F814136510508F079C051EDC516E2
:1028300057E0D50608F473C085E08093210282E159
:1028400080932002C60186509F4FAF89B88D8A17AA
:102850009B0720F483E18093200220C0EF89F88D4C
:10286000CE16DF06B8F4EC19FD09BF0180E090E058
:1028700020911B0230911C0240E050E00E949A3DE2
:10288000960140E050E00E94EC3D309365022093B9
:10289000640204C010926502109264020F850770F2
:1028A0008E89806480937C0010E0E1E0CE2ED12CF4
:1028B0007FEFE72E73E0F72EA8958E8561E06FD548
:1028C000FA89F4B986B18023E9F3288924B9809183
:1028D0007A00806480937A0080917A0086FDFCCF34
:1028E0008091780090917900A701481B590BC40E84
:1028F000D51E1F5F1B3001F7C601880F991F880F77
:10290000991F69E070E00E94C53D70936B0260936F
:102910006A0280916F028F5F80936F02B6CE5B89EF
:1029200054B98E8585B98D890E94760499878887E8
:102930008E890E947A049A838983009136021091CD
:102940003702081B190B0A30110580F514B881E015
:102950000E9442049A8994B9A989A5B98D890E94D7
:102960007604998788878E890E947A049A8389835E
:10297000E885F9857F0100E010E020911B0230918D
:102980001C0240E050E060E871EA83E09CE10E94B4
:10299000EC3DC801B7010E949A3D2091360230916A
:1029A000370249815A81241B350B0DC06885798512
:1029B000601B710B80E090E024E630E040E050E0E6
:1029C0000E949A3D980140E050E00E94EC3DC90110
:1029D000DA011C012D015F8557B918B88B8184B9C4
:1029E00085B98C890E9476044C018E890E947A04F4
:1029F0007C018D890E947A045C0190E3891691E143
:102A0000990608F0DCC1AD85A5B98C890E947604D1
:102A10006C01BD85B4B98C890E9476048C0115B80F
:102A200081E00E944204ED85E5B98C890E9476041C
:102A3000F6E000341F0708F059C08153914108F4B3
:102A400055C0C4018A569F4FC816D90608F04EC01B
:102A500086E080932102809155028F5F809355021A
:102A6000EA18FB08F0924B02E0924A028A189B088F
:102A7000909251028092500214B815B83F8538B92F
:102A800081E00E9442044D8544B98C890E947604FD
:102A9000853F910508F065C25B8154B98E890E941B
:102AA0007604815D934008F45CC28C890E947A04AC
:102AB0008D5D924008F455C2ED85E4B98C890E9481
:102AC00076048D5D924008F44CC22D8525B981E0D5
:102AD0000E94420415B88C890E947604853F9105B6
:102AE00008F03FC287E0809321023BC23B8134B9AA
:102AF00035B981E00E94420409894D85042B04B94F
:102B000005B98C890E9476047C01C0903602D09071
:102B10003702C81AD90A8E890E947A044C01A09003
:102B20003602B0903702A81AB90A8D890E947A0439
:102B30003C015EEFA51659E0B50608F4CBC084E071
:102B4000809321028CE0809320028E819F818C15DE
:102B50009D0510F0760105C07601AE81BF81EA1AAD
:102B6000FB0A00E010E0209122023091230240E0B5
:102B700050E060E871EA83E09CE10E94EC3DC8010E
:102B8000B7010E949A3D950140E050E00E94EC3D63
:102B900079018A0180915502882379F0809146025B
:102BA00090914702A0914802B09149028E159F056D
:102BB000A007B10710F020E024C0E0924602F09296
:102BC0004702009348021093490286189708909292
:102BD0004B0280924A02B60180E090E020E137E2A9
:102BE00040E050E00E949A3D209122023091230261
:102BF00040E050E00E94EC3D30934D0220934C02A7
:102C000021E08091460290914702A0914802B09144
:102C1000490282159305A405B50550F52092460298
:102C2000309247024092480250924902E981FA816B
:102C300028853985E21BF30BF0934B02E0934A029F
:102C4000B90180E090E020E137E240E050E00E94EE
:102C50009A3D20911B0230911C0240E050E00E94FE
:102C6000EC3D205F384D30934D0220934C0203C061
:102C7000222309F477C14E815F81BA0180E090E0A0
:102C800020E137E240E050E00E949A3D20911B0293
:102C900030911C0240E050E00E94EC3D30934F0226
:102CA00020934E02AC81BD81BD0180E090E020E127
:102CB00037E240E050E00E949A3D2091220230919C
:102CC000230240E050E00E94EC3D309351022093FB
:102CD000500247C1EE81FF81E136F10508F06FC077
:102CE000F9E4CF16FDE0DF0608F469C085E08093C3
:102CF000210282E080932002C30186509F4F8E15EF
:102D00009F0520F483E0809320021EC06E147F0490
:102D1000B8F4E618F708B70180E090E020912202AD
:102D20003091230240E050E00E949A3D960140E03D
:102D300050E00E94EC3D30934B0220934A0204C0C5
:102D400010924B0210924A02FC8427E0F2228E89F4
:102D5000806480937C0010E051E0C52ED12CA895B2
:102D60008E8560E01CD304B905B986B18F21E9F7DF
:102D70003D8534B980917A00806480937A00809197
:102D80007A0086FDFCCF8091780090917900C80E82
:102D9000D91E1F5F1B3019F7C601880F991F880FB6
:102DA000991F69E070E00E94C53D709351026093E5
:102DB0005002809155028F5F80935502D2C017B8A0
:102DC00018B814B815B817B84E815F81475C5140E8
:102DD00008F4ABC018B810E00C859F85092B07B923
:102DE00081E00E944204AF85A7B98C890E947A04D1
:102DF000429718F01F5F183C91F70889000F1D8556
:102E0000110F14B915B98E8561E0C9D28C890E9461
:102E100076046C0104B915B8BC85B7B9B8B98E850C
:102E200060E0BDD280903602909037028D890E947A
:102E300076045C01E889E4B98C890E9476043C013F
:102E40008D890E947A04681A790A18B8FF85F7B943
:102E50002D8524B925B98E8561E0A1D28C890E9487
:102E600076047C018D890E947A04E81AF90A6E14AE
:102E70007F0440F414B915B98C890E9476048C0142
:102E8000370114C06401CA18DB0804B915B83C85C1
:102E900037B938B98E8560E082D200913602109140
:102EA00037028D890E947604081B190BC3018759CC
:102EB000904089589141C8F506151705B0F5C6012F
:102EC00033E0969587953A95E1F7893C910510F0A6
:102ED00088EC90E08C0D9D1D8615970530F5C3019B
:102EE00024E0969587952A95E1F78C159D05E8F4E1
:102EF00080912102833018F483E080932102809135
:102F00001F02E82FF0E09F012F563D4F4C89D90159
:102F10004C935D8916965C93EE0FFF1FE356FD4FB1
:102F2000718260828F5F80931F028C896D892BD0A4
:102F300017B818B814B815B86896E2E10C94453E75
:102F400080916F028F5F80936F02222389F38E89B5
:102F500080936C029D8990936D02AC89A0936E0260
:102F6000E7CF21E0809155028F5F809355022223A5
:102F7000F9F2BE89B0935202EC89E0935302FD89C5
:102F8000F0935402D5CFA0E0B0E0E9ECF7E10C9467
:102F90002B3E782E662EA895E62FF0E0E751FE4FE7
:102FA000B49033963491E82FF0E0E751FE4F04914E
:102FB0003396F4902091550280916F0290E0820F39
:102FC000911D892B09F0E6C1A89580912502909169
:102FD0002602880F991F880F991F909337028093BC
:102FE00036028091740290917502880F991F880FA4
:102FF000991F90933502809334028EEB80933202B6
:1030000018B837B904B905B911E0C0E0D0E0862D91
:103010000E947604582E492E872D0E947A046C0156
:103020008C1B9D0B97FF03C0909581959F4F039735
:1030300064F4102F110F15B814B9872D0E9476046F
:103040008135910508F093C107C0A8951F5F19311C
:1030500009F48DC1E601DBCF15B9872D0E947604F6
:103060004C01F7B8F8B815B8B4B811E0C0E0D0E03A
:10307000872D0E947604082FA92E862D0E947A049F
:103080007C018C1B9D0B97FF03C0909581959F4FF2
:10309000039764F4BB0CB4B8862D0E947604EC014F
:1030A00020ECC21624E4D20640F00EC0A8951F5FA3
:1030B000193109F45CC1E701DBCF35E8831631E053
:1030C000930608F054C106C040EB84164DE4940604
:1030D00008F04DC154EAE51652E0F50608F06CC060
:1030E000C839D10508F443C1E0903602F0903702A8
:1030F000B40180E090E028E937EB40E050E00E9426
:103100009A3D97012819390940E050E00E94EC3DB2
:1031100059016A01EC1AFD0A00E010E0C801B7018C
:1031200028E937EB40E050E00E949A3D9E0140E0E4
:1031300050E00E94EC3DB901CA01A8E78A16AFE051
:103140009A0640F4F2E0AA0CBB1CCC1CDD1CFA95DC
:10315000D1F70AC0C857DF40B0F4E2E0660F771F2E
:10316000881F991FEA95D1F76A0D7B1D8C1D9D1D47
:1031700025E030E040E050E00E94EC3DC901DA017A
:10318000BC01CD0108C06A0D7B1D8C1D9D1D96954F
:1031900087957795679524E630E040E050E00E94FF
:1031A0009A3D7B018C012CEA3DE040E050E0E20ECC
:1031B000F31E041F151F77C0852D942D9C01A901B6
:1031C000C216D30608F4A601802F9A2D9C0189010E
:1031D0002E153F0508F487014A014C155D0508F4DA
:1031E0004601B401641B750B80E090E0209122023F
:1031F0003091230240E050E00E949A3D2091360237
:10320000309137022819390940E050E00E94EC3D26
:1032100059016A01E801E016F10608F4E7010C1B08
:103220001D0BB80180E090E020911B0230911C0240
:1032300040E050E00E949A3D9E0140E050E00E9434
:10324000EC3DB901CA0138E783163FE0930640F42C
:1032500042E0AA0CBB1CCC1CDD1C4A95D1F70AC06D
:10326000C857DF40B0F432E0660F771F881F991F00
:103270003A95D1F76A0D7B1D8C1D9D1D25E030E030
:1032800040E050E00E94EC3DC901DA017C018D0173
:103290000AC07B018C01EA0CFB1C0C1D1D1D169540
:1032A0000795F794E7948090210253E0581508F4AD
:1032B0005EC0972C9A94960CC92DD0E0DE01A65AD8
:1032C000BD4F8C91FE01EE0FFF1FEE0FFF1F8823F5
:1032D00009F445C0E655FD4FA080B180C280D3807F
:1032E000C801B7016A197B098C099D0997FF07C0BE
:1032F00090958095709561957F4F8F4F9F4F2AE0F5
:1033000030E040E050E00E949A3D24E630E040E0AA
:1033100050E0A20EB31EC41ED51EAE0CBF1CC01EB4
:10332000D11EA60195010E94EC3D211531054105F4
:103330005105E9F433E0831619F081E0809321020E
:10334000C65ADD4F82E0888380917602E82FF0E054
:10335000E35AFD4F90828F5F8093760208C0E65556
:10336000FD4FE082F1820283138381E08C93809190
:103370002502909126029093370280933602809125
:10338000740290917502909335028093340289E122
:1033900080933202CDB7DEB7E0E10C94473E1F9335
:1033A000182F60FF03C085B1812B03C095B18095B4
:1033B000892385B984B1812B84B982E00E944204BB
:1033C00084B1912F9095892384B985B1982395B9BB
:1033D0001F910895A0E0B0E0E0EFF9E10C94323ED7
:1033E000DD249FE3B92E89E0C82E17B818B815B8A8
:1033F000B4B880E00E947604EC0181E00E947A0477
:103400008C0182E00E947A049C0180912102893023
:1034100049F0C430D105A8F40430110590F42430EB
:10342000310578F417B814B8D0930402C09303029E
:1034300010930602009305023093080220930702BE
:103440004AC080E0C85ED34008F481E0085E1340C3
:1034500008F48260285E334008F4846087B900E095
:1034600010E0A89580E00E946E047C0181E00E943B
:103470007A04EC0182E00E947A0424E1E21625E05D
:10348000F20608F4389A25E0C431D20708F4399AD4
:1034900025E08431920708F43A9A26E0E216F10416
:1034A00020F4269710F4069740F00F5F1F4F81E03D
:1034B000043F1807B1F6C0922102C0E0D0E003C07B
:1034C0000E9430042196C017D107D0F3D3949AE01C
:1034D000D91609F08ACFCDB7DEB7E9E00C944E3E9D
:1034E0001F9360917B0270917C0280917D0290918C
:1034F0007E0210918D020AC02AE030E040E050E0E8
:103500000E94EC3DC901DA01BC01CD01212F1F5FF2
:10351000613A36E8730731E0830730E0930760F7DC
:1035200020938D02209136023091370240E050E026
:103530000E949A3D28E833E140E050E00E94EC3DD3
:1035400020937B0230937C0240937D0250937E0255
:103550001F9108951F920F920FB60F9211248F930F
:103560009F93B59904C080917802882349F4B59B54
:1035700010C080918600909187008A3F910548F4A1
:10358000809158029091590201969093590280932C
:1035900058029F918F910F900FBE0F901F9018951A
:1035A0001F920F920FB60F9211248F939F93109238
:1035B0007802B09B10C080918600909187008A3F6E
:1035C000910548F480915802909159020196909388
:1035D0005902809358029F918F910F900FBE0F90C8
:1035E0001F901895A0E0B0E0E8EFFAE10C942F3EB0
:1035F000982E862EC82EDD24262F2150C601880F36
:10360000991F8C0D9D1D280F20935702F601E7513D
:10361000FE4FB490262F30E0C90187519E4FFC0128
:10362000149124513E4FF90104918091210281307F
:1036300009F4B2C230911F02E1E9F2E0DF011C9609
:1036400020E010C08681881551F48081891539F4F5
:103650008D919C9111978C5D954008F49DC22F5FD0
:1036600031961296231770F31092880210928702F7
:1036700081EF80938D0210927B0210927C02109257
:103680007D0210927E02A6DE18B807B914B915B9EA
:10369000892D0E947A047C01882D0E947A04E81A00
:1036A000F90A14B81092590210925802C0E0D0E002
:1036B00027C0B5B8B4B80E942A0414B815B80E943F
:1036C0003104A895892D0E947A04EC01CE19DF09F6
:1036D00080915802909159028E37910520F0CB3499
:1036E000D1050CF455C251E0CD32D507ACF4809130
:1036F0005802909159020196909359028093580272
:103700008091580290915902845F914090F2F1E0CB
:10371000CD32DF070CF43CC28091580290915902DF
:10372000892B89F425E0C531D2076CF091C00E9445
:103730002B04892D0E947A04BC016E197F09A8957B
:103740000F5F1F4F03C0BE0100E010E080915802E0
:10375000909159028017910750F76E01C61AD70A47
:103760001C141D041CF0AA24BB2418C039ECC31679
:10377000D1040CF00DC2B601882777FD8095982FF3
:1037800028EE33E040E050E00E949A3D9E0144273D
:1037900037FD4095542F0E94EC3D5901E0905802AE
:1037A000F09059020894E11CF11C00E010E0E09256
:1037B0008302F09284020093850210938602C60170
:1037C0008C0F9D1FEED1A0E0B0E0BC01CD01A8019F
:1037D00097010E949A3D60938302709384028093C4
:1037E00085029093860260937B0270937C028093A3
:1037F0007D0290937E0287EF80938D0271DE86E2D8
:1038000090E00E94973E282F332727FD309568EEE1
:1038100073E0621B730B882777FD8095982F2091AA
:103820007B0230917C0240917D0250917E020E9489
:103830009A3D24E630E040E050E00E94EC3D2093C9
:103840007B0230937C0240937D0250937E025EC1E6
:103850001B2D110FBFDD15B887E087B918B814B953
:1038600080E480937B0084E580BF892D8064809311
:103870007C0087E180937A000E9434041092590200
:1038800010925802109280001092850010928400CD
:1038900087E286BB81E280936F0091E0909378028B
:1038A00015B980912102853071F49093810081E0F7
:1038B00090E00C2C02C0880F991F0A94E2F78095C3
:1038C000877087B903C09093810007B9F89483B7D4
:1038D000817F83BF11C083B7816083BF789488954F
:1038E00083B78E7F83BFF894A895809158029091FA
:1038F000590280589C4021F080917802882359F722
:10390000789410928100C0918600D0918700109227
:103910006F0087E980937A0014B815B8892D0E944A
:103920007A0420913A0230913B02821B930B0C9651
:103930009093900280938F02809158029091590247
:103940008054964008F024C1809158029091590209
:103950009093860280938502D0938402C093830261
:1039600084EF80938D0280915802909159028234A5
:103970009105C8F060918302709184028091850264
:103980009091860224E630E040E050E00E94EC3D59
:1039900020938302309384024093850250938602E1
:1039A00086EF80938D026091790270917A0280E0B7
:1039B00090E02091830230918402409185025091E1
:1039C00086020E949A3D20E436E040E050E00E94EA
:1039D000EC3D209383023093840240938502509300
:1039E0008602EBE7F2E020937B023183428353832C
:1039F00077DD80918D02843F09F078C0E0907B02F2
:103A0000F0907C0200917D0210917E0280EAE8161F
:103A10008FE0F80680E0080780E01807C0F4A801EE
:103A200097012C543F4F4F4F5F4F60EA7FE080E09B
:103A300090E00E94EC3DE20EF31E041F151FE09281
:103A40007B02F0927C0200937D0210937E02E09054
:103A50007B02F0907C0200917D0210917E02E0E0FA
:103A6000EE16E0E0FE06E1E00E07E0E01E0728F4B7
:103A7000F092BB02E092BA0206C081E090E090931F
:103A8000BB028093BA028091570290E08D5F9F4FF6
:103A90000E94973E90E0A0E0B0E08E159F05A00741
:103AA000B10768F4E81AF90A0A0B1B0BE0927B02D3
:103AB000F0927C0200937D0210937E0217C024E1F5
:103AC00030E040E050E0E20EF31E041F151FE81640
:103AD000F9060A071B0710F40E94A50610927B0244
:103AE00010927C0210927D0210927E02B4B88091F6
:103AF0007B0290917C02A0917D02B0917E02499759
:103B0000A105B10508F444C0AA24BB2480911F027A
:103B1000882321F0809121028530D1F588E08093BF
:103B2000210260918D0280918E028617BCF0681789
:103B300079F520917B0230917C0240917D02509179
:103B40007E0280917F0290918002A0918102B091CB
:103B5000820282179307A407B507D0F480917B02F5
:103B600090917C02A0917D02B0917E0280937F02B1
:103B700090938002A0938102B093820260938E02A0
:103B8000B0928A02A092890280928B0290928C025B
:103B900017B818B814B815B8CDB7DEB7ECE00C9468
:103BA0004B3E0F9221E08C32920710F48CE291E0B0
:103BB0008C52914069E170E00E94C53D99E16B3201
:103BC00010F0982F6BE2981BEBE2F0E0E60FF11D8E
:103BD000E60FF11D9F93CF010E94973E482F31962B
:103BE000CF010E94973E582F3196CF010E94973EF9
:103BF000282F3196CF010E94973E382F6F91421B9C
:103C0000530B649FC001659F900D11240C9669E1D0
:103C100070E00E94C53D620F731FCB010F900895A5
:103C20002F923F924F925F926F927F928F929F92CC
:103C3000AF92BF92CF92DF92EF92FF920F931F93BA
:103C400088E893E1909326028093250290933702AF
:103C5000809336028EEB8093320218B880E187B9E8
:103C60000E94390417B884E00E9476048C018B5CB2
:103C70009840835F9140C0F481E08093410260915D
:103C800036027091370280E090E02FEB39E040E09F
:103C900050E00E949A3D980140E050E00E94EC3DC7
:103CA00030932602209325028091250290912602CE
:103CB00090933702809336028EE00E947A048EE061
:103CC0000E94760490933B0280933A020E94BD05C5
:103CD00081DB18B811E017B985E185B914B980E026
:103CE0000E9476046C0142E0F42EF7B804E004B9B7
:103CF00081E00E9476043C0107B930E1832E84B84C
:103D000082E00E9476046C0C7D1C680E791E15B84A
:103D100018B917B914B9409036025090370280E0B4
:103D20000E9476041C01F8B8F7B804B9A0903602D6
:103D3000B090370281E00E9476047C0108B907B98F
:103D400084B8009136021091370282E00E94760416
:103D5000A40CB51CA00EB11EA81AB90AAE18BF0853
:103D6000A218B30817B818B814B880913602909109
:103D700037027C01EE0CFF1CE80EF91EE618F7086E
:103D8000EA18FB0800E010E088249924C401B3017C
:103D900020E93AE140E050E00E949A3DA8019701F5
:103DA0000E94EC3D49013093400220933F02CC2415
:103DB000DD24C601B50120E93AE140E050E00E946F
:103DC0009A3DA80197010E94EC3DC9013093390248
:103DD000209338028057954E9093230280932202BD
:103DE00080E99AE1880E991E90921C0280921B0233
:103DF00089E1809332021F910F91FF90EF90DF9045
:103E0000CF90BF90AF909F908F907F906F905F907A
:103E10004F903F902F900895982F8F3031F48091DC
:103E20003C02813011F480E00895892F8F5F08955E
:103E3000EF92FF920F931F93E82E0E9479018091D9
:103E40008B020E944E0280EF91E00E94DB01F8D5C8
:103E500080918C0260918B024CD490938802809365
:103E6000870210E08A5F9F4F08F411E0FF248091E1
:103E7000890290918A02892B11F0FF24F394112377
:103E800071F0FF2041F080E090E0EE2011F081E041
:103E900090E0882321F08BE392E00E94DB01809187
:103EA0008C020E944E02EE2059F0909142028DE069
:103EB000891B0E9422028AED92E00E94DB0115C05C
:103EC0008091890290918A02892B69F085E092E0C5
:103ED0000E94DB018091890290918A026FEF45E296
:103EE00022E00E940E040E942B020E947101609148
:103EF0007F027091800280918102909182024091B4
:103F00008E0226E404E00E940603112369F08FEF7D
:103F100091E00E94DB0180918702909188026EEF10
:103F200044EF22E00E940E040E942B02EE2091F04A
:103F3000FF2081F080E00E94500286E092E00E9423
:103F4000DB018091890290918A026FEF45E222E0C5
:103F50000E940E040E942B021F910F91FF90EF9080
:103F60000895EF92FF920F931F9310E098E0E92ECF
:103F700082EFF82E0DE001C010E00E94360682E0CC
:103F800060E030DBE092210280918D02843FE1F419
:103F900080917B0290917C02A0917D02B0917E0283
:103FA00084369105A105B10578F482E060E040E037
:103FB0000E94D83160937B0270937C0280937D02D3
:103FC00090937E02F0928D0280918D02823FACF040
:103FD00080938E0280917B0290917C02A0917D0261
:103FE000B0917E0280937F0290938002A093810221
:103FF000B093820281E01CDF18C00E94790183ED3A
:1040000092E00E94DB0180914202902F981B892F41
:104010000E9422028AED92E00E94DB010E9471015F
:104020008FE30E9485010E942B0280ED97E00E94A1
:104030002C05882379F480911A02843058F41F30BB
:1040400029F480913C02813009F496CF1F5F1A3F1A
:1040500008F493CF0E9480011F910F91FF90EF9081
:104060000895FF920F931F93182F062FF42E0E948E
:104070004E028AE392E00E94DB01E4D0812F602FA0
:104080000E94AB3410E08091BE029091BF02A091DB
:10409000C002B091C1020097A105B10509F411E079
:1040A0008091010287FD02C0112321F480E492E097
:1040B0000E94DB01802F0E944E02112331F40E94E6
:1040C000200280915D020E949902FF2049F08091B8
:1040D00042028D3028F490E0865B9C4F0E94DB0109
:1040E00080E00E9450021123D9F46091BE027091C9
:1040F000BF028091C0029091C10247EF28E403E023
:104100000E9406038BE292E00E94DB018BE593E0C4
:104110000E949F3E64EF46E422E00E940E041AC013
:1041200080915D020E949902809101028E3F94F479
:104130008DE092E00E94DB016091090270910A0219
:1041400080910B0290910C024091010228E403E05F
:104150000E9406038091B6029091B702A091B80226
:10416000B091B9020097A105B105F1F080E00E947D
:1041700050026091B6027091B7028091B80290919E
:10418000B90240E028E404E00E94060380E392E0E4
:104190000E94DB018091BC029091BD026FEF40E272
:1041A00023E00E940E0407C080E00E943602809146
:1041B0004502882311F40E942B021F910F91FF905A
:1041C00008951F9388EC92E00E94122C10E00E9448
:1041D000360682E060E00E94C31780E062E00E9441
:1041E000C3170E94790180917602882329F080E02C
:1041F00062E041E036DF0FC088EC92E00E94DB0114
:1042000084E593E00E94DB010E9471018FE30E942C
:1042100085010E942B0288EE93E00E942C058823E2
:1042200069F480911A02843048F41F3021F480919F
:104230003C02813059F21F5F1A3F48F20E94800110
:104240001F910895A6E1B0E0E8E2F1E20C94293E66
:1042500082E08093010280912102813009F045C201
:1042600080917602813009F040C220915D022C8B52
:10427000E22FF0E0EE0FFF1FEE0FFF1FE655FD4FA0
:1042800080819181A281B381893032E5930730E04A
:10429000A30730E0B30708F028C29E8B8D8B1B8AE2
:1042A0008B89823030F48C890E948F02F82ED92EAF
:1042B00005C08C890E948F02F92ED82EED2DF0E0DA
:1042C000E451FE4FA490EF2DF0E0E751FE4F8491B2
:1042D00015B818B8AD89BE89A03FB105B0F4BB8947
:1042E000B0FD13C040901B0250901C0220E735EE39
:1042F000420E531E81E090E00F2C02C0880F991FE0
:104300000A94E2F78A2987B906C084B9A7B8409011
:104310001B0250901C02EE248F2D0E9472048C010F
:104320008D2D0E947A040430110510F4049720F0BA
:10433000E39434E1E31681F780E480937B0094E515
:1043400090BF8F2D806480937C00A7E1A0937A00BA
:10435000109280001092850010928400B7E2B6BBE4
:104360000E9434042B89222E3324C1018170907065
:104370009A8B898B20FD05C091E890938100A8B8A5
:1043800008C0A8B80E943D04A0E2A6BBB1E8B09363
:10439000810020E030E086B3482F85FF02C049014C
:1043A0000DC080FFF8CF81E086BBA8952F5F3F4FFF
:1043B000203A310581F7F0EA8F2E912C18B810922F
:1043C000810090E296BB20918600309187003901F0
:1043D00080918400909185002817390738F440FFB8
:1043E00005C0A1E0A6BB0894811C911CB7E9B0935D
:1043F0007A00EE248F2D0E9472048C018D2D0E9474
:104400007A040430110510F4049720F0E39424E1B9
:10441000E21681F720913F02309140028D899E89FA
:10442000280F391F240D351DE0911D02F0911E0249
:1044300090E949169AE15906C8F4A1EE6A1671048A
:104440008104910410F089E107C0C30165E070E0C8
:104450000E94C53D862F8451BF0168527040992744
:1044600087FD9095681B790B86E00AC0C90168E555
:104470007BE10E94C53D862F895FBF01685D7F4F4C
:1044800090E0A0E0B0E086159705A805B90528F4EE
:10449000681A790A8A0A9B0A03C0662477244301B2
:1044A00089899A89892B41F08AE390E0A0E0B0E005
:1044B000680E791E8A1E9B1E90EA8916910418F0D8
:1044C000662477244301ABE06A16710481049104E9
:1044D00028F0089461087108810891085901CC24DA
:1044E000DD2480E090E028EE33E040E050E00E94E0
:1044F0009A3D7B018C01B20180E090E02091360270
:104500003091370240E050E00E949A3DA6019501AB
:104510000E94EC3D40E050E0C801B7010E94EC3D34
:10452000DA01C9010E9415067C01C601B501A4018A
:1045300093010E949A3D5B016C0100E010E0E4E011
:10454000EE0CFF1C001F111FEA95D1F785E090E0EB
:10455000A0E0B0E0E80EF91E0A1F1B1FC801B7015A
:104560002AE030E040E050E00E94EC3D40E050E0C6
:10457000C601B5010E94EC3DF101EE0FFF1FEE0FE9
:10458000FF1FA1E0B0E0AC0FBD1FEA0FFB1F2083AF
:1045900031834283538389899A89892BA9F494E1D1
:1045A000691671048104910478F0F1013196EE0FDF
:1045B000FF1FEE0FFF1FEA0FFB1F20833183428393
:1045C0005383AB89AF5FAB8BA895BB89BF5FBB8BB8
:1045D000B43008F465CE18B884E00E94420470E05C
:1045E0002D813E814F81588589819A81AB81BC8123
:1045F00082179307A407B50708F471E02D853E855F
:104600004F85588989859A85AB85BC858217930724
:10461000A407B50710F463E001C062E0E62FF0E004
:10462000EE0FFF1FEE0FFF1FDE011196EA0FFB1FBB
:10463000872F90E0880F991F880F991FA80FB91F27
:1046400020813181428153818D919D910D90BC914A
:10465000A02D281739074A075B0708F4762F872F04
:1046600090E0FC01EE0FFF1FEE0FFF1FEC0FFD1F90
:1046700041815281638174814093090250930A02FF
:1046800060930B0270930C022BEF2093010280FDCC
:1046900005C02D893E89203F3105B8F08CEF80930D
:1046A00001024B5F5F4F6F4F7F4FCB01BA012AE092
:1046B00030E040E050E00E94EC3D2093090230934E
:1046C0000A0240930B0250930C02809109029091D0
:1046D0000A02A0910B02B0910C020097A105B1054E
:1046E00011F41092010217B814B86696E2E10C9426
:1046F000453EAEE1B0E0EFE7F3E20C94293E662ED2
:10470000B82E860F898320912102283059F52091F7
:104710007F0230918002409181025091820257FDC8
:1047200015C010918E0209C0CA01B9012AE0312DCD
:10473000412D512D0E94EC3D1F5F173FACF391F4CA
:10474000243160E036074105510518F48FEF9FEFE3
:1047500044C1173F39F480E028178DE73807410539
:10476000410510F020E03DE72C8B3D8B27EDA22E7C
:10477000ECEEF1E0E60DF11D859180608E87ECEEA8
:10478000F1E0EB0DF11D859180608F87E9EEF1E09E
:10479000E60DF11D7590E9EEF1E0EB0DF11DC59010
:1047A00090EC692AB92A81E0E82EF12C012D112D17
:1047B0008E831F82188619861A861B861C861D8684
:1047C000188E198E1B8E1A8E0E94EA1980E088B905
:1047D00060927C000E9435043F8537B975B874B883
:1047E00055E05A95F1F7000014B815B8DD243E8560
:1047F00037B975B874B860927C00A895A0927A0019
:1048000080917A0086FDFCCF20907800309079006E
:10481000B0927C004C2DE5D0209178003091790049
:10482000288B398B3F8537B9C5B8C4B8A895B092E5
:104830007C00A0927A0080917A0086FDFCCF609186
:1048400078007091790060927C00472DCAD0409129
:1048500078005091790014B8CB01820D931DE80EB9
:10486000F91E011D111DEA82FB820C831D838889BC
:104870009989840F951F2E813F8168857985280F3E
:10488000391F611D711D2E833F836887798722E35D
:104890002417150650F075B874B80E943F0414B878
:1048A00015B8888D8395888F07C0483E73E05707F9
:1048B00018F08A8D83958A8F888999892817190617
:1048C00060F03E8537B9C5B8C4B80E943F0414B83B
:1048D00015B8898D8395898F07C0883E73E0970747
:1048E00018F08B8D83958B8FD3945D2D5F3F49F0AE
:1048F0005F3731F45C2D550FC50E572D550F750ED2
:1049000076CF40903F0250904002440C551C9201DB
:10491000E4E0240D351DEA95E1F72901570168010E
:104920006E807F8088849984209121022830C1F490
:104930006C897D89812D912D65507040804090401B
:104940009B01AC010E949A3D9B01AC0160E779E7B5
:1049500086E190E00E94EC3D621A730A840A950A8F
:10496000A614B704C804D90428F46A187B088C0874
:104970009D0803C0662477244301B20180E090E0E3
:104980009301A4010E949A3D9501A6010E94EC3D6D
:1049900087E290E07981870F911D0E94973E682EF3
:1049A000C90160E170E00E94C53D260F371FC901B3
:1049B0006816190618F4861991090FC08C5E9F4F6E
:1049C0008615910540F48C899D89843981E1980789
:1049D00010F00E94A506812D912D6E96E2E10C94B7
:1049E000453E109281001092800010926F0010924C
:1049F0008B0010928A0057E056BB5FEF5093850002
:104A00005093840055E050937B0057EB50937A000D
:104A100051E0509381005FE45A95F1F700000000E7
:104A200045B944B95BE05A95F1F714B815B810923E
:104A3000810080917A0084FFFCCF80937A000895F2
:104A4000A0E0B0E0E6E2F5E20C94333E809189020A
:104A500090918A02892B09F09FC080918B02E82FE8
:104A6000F0E0E451FE4F1491E0918C02F0E0E75148
:104A7000FE4FF4900E94EA1918B815B817B9F4B8A7
:104A800080918C020E947A046C0120918E02822F08
:104A9000845F843008F080C060917F027091800252
:104AA0008091810290918202122F115F0FC06B5F83
:104AB0007F4F8F4F9F4F2AE030E040E050E00E9450
:104AC000EC3DC901DA01BC01CD011F5F173078F35D
:104AD000693823E1720720E0820720E0920708F09E
:104AE0005BC08B016530710508F456C0F5B8F4B8A9
:104AF000C0E0D0E00E943B042296C017D107D0F35B
:104B000014B815B8A89585E08093320280918C0284
:104B10000E947A04C816D90618F0EE24FF2403C0B8
:104B20007C01EC18FD08C0E0D0E00E943B04219617
:104B3000C017D107D0F380918C020E947A049C01A7
:104B400089E180933202A895C216D30618F060E07E
:104B500070E003C0B9016C197D096E157F05B0F4D2
:104B6000C701861B970BBC0189F080E090E024EF21
:104B700031E040E050E00E949A3D970140E050E073
:104B80000E94EC3D30938A02209389020E94EA1928
:104B900017B818B814B815B8CDB7DEB7E8E00C945C
:104BA0004F3E1F920F920FB60F9211248F939F9337
:104BB000AF93BF93789480910E0290910F02A091D1
:104BC0001002B091110280509F4FAF4FBF4F8093A2
:104BD0000E0290930F02A0931002B0931102BF91A6
:104BE000AF919F918F910F900FBE0F901F901895CE
:104BF0001F920F920FB60F9211248F9386E085BDFE
:104C00008F910F900FBE0F901F9018951F920F92CB
:104C10000FB60F921124A8951092810015BC0F9029
:104C20000FBE0F901F9018951F920F920FB60F9204
:104C300011242F933F938F939F9320917202309171
:104C400073022115310511F481E085BD8091700258
:104C5000909171022817390730F015BC80916D00D2
:104C60008F7E80936D002F5F3F4F309373022093B0
:104C700072029F918F913F912F910F900FBE0F90D5
:104C80001F901895A5E0B0E0E8E4F6E20C94293E08
:104C900086E291E0C7D51B8254980E94300414BC70
:104CA00016BC10920E0210920F0210921002109277
:104CB000110261E065BB60936E001092800085E296
:104CC00094EF90938B0080938A00E1E0F0E0F09302
:104CD0008900E0938800109285001092840083B5CB
:104CE000816083BDF6E0F6BBF0936F00789464E0DA
:104CF00060938100198210E00E942904A8954F99C1
:104D000002C081E0898385B5882319F01F5F1233C3
:104D100099F715BC86B580930E020E94800186E645
:104D20000E9485010E941E0260910E0270910F0286
:104D3000809110029091110247E00E94F90354986B
:104D400080918100882319F08FE30E9485011092E1
:104D5000810010926F0020910E0230910F0240915D
:104D6000100250911102DA01C9010197A109B1099C
:104D7000895D9146A040B04008F026C1CA01B90142
:104D80002AE030E040E050E00E949A3D605F7F4FB3
:104D90008F4F9F4F14E096958795779567951A9555
:104DA000D1F7660F771F7093710260937002549869
:104DB0000E94300416BC10920E0210920F02109244
:104DC000100210921102F1E0F5BBF0936E00109208
:104DD00073021092720264E06BBB80916800846081
:104DE00080936800789480916D00806180936D005D
:104DF0001A820E942904A8954F9902C081E08983F4
:104E000080916D0084FF05C09A819F5F9A839A3FCD
:104E100081F715BC80916D008F7E80936D0080912D
:104E200068008B7F8093680086B580930E020E9495
:104E3000710184E50E9485010E941E02E0917002CA
:104E4000F0917102FD83EC83A0900E02B0900F02EE
:104E5000C0901002D09011029501A60160E070E0B0
:104E600080E090E0A4EDAA2EF0E3BF2ECC24DD2458
:104E7000EE24FF2400E010E00E945136EC81FD8119
:104E80005F010E944437722E232E942E852E662EAB
:104E9000572E482E392E8C819D818038910530F017
:104EA000672D722D892D982D45EF16C0272D322D97
:104EB000492D582D662D752D842D932DE4E6AE2EAB
:104EC000BB24CC24DD24EE24FF2400E010E00E946B
:104ED0004437B901CA0147EF23E707E00E94060300
:104EE0009A819A3F21F48FE30E9485016DC033209F
:104EF000C1F44420B1F45520A1F4662091F4882037
:104F000081F4E3E0E91568F09E1609F05DC0FEEC5F
:104F1000F21538F02F1609F057C06CE9671508F044
:104F200053C00E94790186E60E9485010E941E02FC
:104F30003320B9F44420A9F4552099F4662089F46B
:104F40008BE3881570F0881611F59AE9991548F0E9
:104F50009916E9F4EAECE21520F02E16C1F4772058
:104F6000B1F020E030E04AE85DE568E775E483E60B
:104F700091E0A72CB22CC92CD82CE62CF52C042DB2
:104F8000132D0E944437B901CA014AEF15C020E031
:104F900030E846EC54EA6EE77DE883E090E0A72C29
:104FA000B22CC92CD82CEE24FF2400E010E00E9483
:104FB0004437B901CA014CEF28E407E00E94060318
:104FC0008AE70E948501549810926E0080ED97E068
:104FD0000E942C05F981F80F51F480911A02833058
:104FE00030F46B816F5F6B83603F09F055CE25967F
:104FF000E2E10C94453E0F931F93CF93DF9383E739
:1050000091E010D486E290E00E94973E182F00E0D5
:105010000E947101C12FDD27C7FDD09517FF08C081
:105020008DE20E948501882799278C1B9D0B01C06A
:10503000CE016FEF45E223E00E940E040E942B0296
:1050400080E496E00E942C05982F882329F4809113
:105050001A02882319F403C08238E0F400E080913A
:105060001A028B30B8F480911902180F992329F095
:10507000993210F01F5F01C0115011350CF0155618
:105080001C3E0CF41B59802F0E940C1F082F803FE0
:1050900008F4BECF86E290E0612F0E94A43EDF912B
:1050A000CF911F910F910895A4E0B0E0EAE5F8E2F6
:1050B0000C94333E89E591E0B5D383E28093800080
:1050C00010926F008FEF90E090938B0080938A0096
:1050D00083E086BB1092820015B881E184B918B8CC
:1050E00081E087B9229A81E090E0909389008093D3
:1050F000880089E080938100DD2402E310E0CC2465
:10510000011709F447C0043608F00456602F70E018
:1051100080E090E02FEF33E040E050E00E949A3DC5
:105120006E5C7F4F8F4F9F4F24E630E040E050E0B1
:105130000E94EC3D790130938B0020938A000E94FD
:105140007101C701A0E0B0E089839A83AB83BC837F
:10515000BC01CD0128EE33E040E050E00E949A3DD2
:1051600061507E4F8F4F9F4F2FEF33E040E050E074
:105170000E94EC3DDA01C9016FEF45E225E00E9493
:105180000E040E942B0298E29D1518F48CE30E94F5
:105190004204102F80E496E00E942C05D82EA2E84D
:1051A000A817E0F090911A029B30C0F48091190288
:1051B00087FD8C59080FB2E3BD1510F4065F05C0DA
:1051C000DD2011F00F5F01C09111CC248C2D0E94C5
:1051D0000C1FC82EEFEEE81708F092CF17B8109208
:1051E00081001092800014B822982496E8E00C9474
:1051F0004F3E8D3008F08D50882319F48BE191E0FB
:105200003BC0813019F486E291E036C0823019F457
:105210008DE491E031C0833019F489E591E02CC030
:10522000843019F48CEB92E027C0853019F488ECB7
:1052300092E022C0863019F483ED92E01DC08830E0
:1052400019F484E691E018C0873019F483E791E0FF
:1052500013C0893019F48AE891E00EC08A3019F43D
:1052600080E391E009C08B3019F488E391E004C039
:105270008C3021F482E491E00E94DB010C942B023B
:10528000A6E0B0E0E6E4F9E20C94293E8DE491E07A
:10529000C9D280E18093800010926F0081E090E09D
:1052A000909389008093880010928B0010928A005E
:1052B00083E086BB1092820088E08093810015B85D
:1052C00081E184B918B881E087B9229A89E0809396
:1052D000810021E12E83F1E02F2E312C412C512C25
:1052E0003AE03C8320E01A8281E08D8301C029816D
:1052F000EA818E2F90E00A966EE170E00E94D93D1F
:105300006983621789F00E9479018DE491E00E941F
:10531000DB0100E004C08EE20E9485010F5FF9818D
:105320000F17C8F30E942B022E812231D8F0C4013E
:10533000B301A20191010E94EC3D7B018C018D81A2
:105340006C810E94B93D692F70E080E090E0A2017D
:1053500091010E949A3D3B014C016E0C7F1C801E06
:10536000911E0EC08D816C810E94B93D692F70E045
:1053700080E090E0A20191010E949A3D3B014C0126
:105380000E9471013D818C81381719F080E090E016
:1053900007C080E090E0EE81E23110F081E090E023
:1053A0008B83882311F08CE306C0FE81F63110F068
:1053B00082E501C08EE30E948501C401B3014E81E4
:1053C0000E94F903C401B30160507C4D8B409F4F94
:1053D000A4019301220F331F441F551F0E94EC3D6F
:1053E000B9014F3F510539F030F02DE02093810095
:1053F00020E034E020C04034510530F03CE03093F0
:10540000810020E031E017C04830510530F08BE0DA
:105410008093810020E430E00EC04115510531F049
:105420009AE09093810028E030E005C0E9E0E09345
:10543000810021E030E05901CC24DD24CA01A6011D
:1054400095010E94EC3D215030403093890020931B
:1054500088008091880090918900892B31F421E0A7
:1054600030E03093890020938800E0908800F0902D
:10547000890060E072E18AE790E0A60195010E9450
:10548000EC3DCA01B90124E630E040E050E00E9462
:105490009A3D0894E11CF11C00E010E0A80197017E
:1054A0000E94EC3D79018A01C401B30124E630E099
:1054B00040E050E00E949A3DE61AF70A080B190BEB
:1054C000C801B7014EEF28E402E20E9406038AE712
:1054D0000E9485010E942B028CED95E00E942C0514
:1054E000982F882331F480911A02882309F040C054
:1054F00045C0863908F063C08135D0F13B81332344
:1055000009F18E8181508E83C201B1012AE030E021
:1055100040E050E00E94EC3DC901DA011C012D0180
:10552000C401B301A20191010E94EC3DCA01B9017D
:105530002AE030E040E050E00E94EC3D6D839AE0CC
:105540009C8353C0EE81E63108F044C0EF5FEE83E8
:10555000E63111F4F5E1FC83C201B1012AE030E04B
:1055600040E050E00E949A3D1B012C011D823DC08D
:105570001A829B3018F02D812F5F2D8380911A02A3
:105580008B30E8F48091190287FD02C00D8105C0BF
:10559000082F0F5F3C81030F8D81080F8A810E94C5
:1055A0000C1F8A83803F58F49C81692F70E06F5FE5
:1055B0007F4F802F90E00E94D93D8D8398CE10922E
:1055C00081001092800017B814B822982696E2E164
:1055D0000C94453EE1E1EE8381E0282E312C412CF4
:1055E000512CFAE0FC8321E02D831A8280CE0F93A8
:1055F0001F9380E391E016D110E000E00E9430029A
:1056000086E192E00E94DB0183E00E9476049C0127
:10561000B3E0880F991FBA95E1F7220F331F820F6D
:10562000931F63E00E94030488EE93E00E942C0520
:10563000982F882319F480911A02811110E080912B
:105640001A02863078F49F3508F00F5F992311F421
:1056500000E002C0053030F4812F0E940C1F182F8B
:10566000803F60F21F910F9108950F931F938CEB71
:1056700092E0D8D010E01092210282E060E0E8D001
:10568000809121028830D1F50E94790183E40E9443
:1056900085010E941E0260917F02709180028091BC
:1056A00081029091820240918E0226E403E00E94E2
:1056B00006030E942B0280918C0260918B0219D804
:1056C00090938802809387020E94710180E092E0AB
:1056D0000E94DB0180918702909188022FEF8A3F20
:1056E000920730F46EEF44EF22E00E940E0403C0F4
:1056F0008FE30E9485010E942B020AC00E9479015B
:105700008CEB92E00E94DB010E942B020E9430028F
:1057100088EE93E00E942C05882359F480911A02A8
:10572000843038F4812F0E940C1F182F8A3F08F410
:10573000A2CF1F910F910895813011F480E0A2CA89
:10574000823009F49DCD833009F4AECC843009F465
:105750008CCF853011F40C94E120863021F40E9426
:1057600080010C94B11F883009F4B8C1873009F466
:1057700042CC893019F481E10C940C078A3009F489
:1057800036CF8B3009F408C38C3011F40C94080721
:1057900008950F931F9380E191E044D010E000E062
:1057A00003C01D3008F01D500E947101812F21DDC2
:1057B00080E49FE10E942C05982F811100E08091E8
:1057C0003C02813009F400E0923330F4809177029A
:1057D000882371F0992361F0112301F1812FACDF4F
:1057E00010921A021092190280E191E01BD090E011
:1057F00080911A028A3090F480911902882319F05E
:1058000087FD03C000E0180F03C0835F180F00E09E
:1058100091111F5F0F5F023808F4C3CF80E01F9122
:105820000F9108950F931F938C010E948001C8016E
:105830000E94DB0100E082E00E9442044F9903C015
:105840000F5F0436C1F70E9471011F910F910895F7
:10585000A0E0B0E0EEE2FCE20C942F3ED82EC62E83
:10586000862F90E0FC01E451FE4F1491ED2DF0E005
:10587000E751FE4FF49087519E4FFC01E490109247
:1058800088021092870210927B0210927C02109282
:105890007D0210927E0287EF80938D020E94EA19AA
:1058A00018B817B9E4B8E5B88D2D0E947A048C01B8
:1058B0008C2D0E947A04081B190B14B810925902FF
:1058C00010925802E0E0F0E07CE2872E71E0972E23
:1058D00064E6A62EB12C6FC0F5B880915802909165
:1058E0005902892BB9F0E401CE1BDF0B60915802FD
:1058F00070915902CF01880F991F9F0143E0220F39
:10590000331F4A95E1F7820F931F0E94C53DC617CA
:10591000D70750F4F4B80E94340414B880915802A8
:105920009091590201962AC0809158029091590293
:105930000B97D8F06091580270915902EA9DC0010E
:10594000EB9D900DFA9D900D11240E94C53D6C17A2
:105950007D0758F4F4B80E94290414B880915802C5
:10596000909159028C599F4F09C0F4B80E942F049E
:1059700014B880915802909159020A969093590256
:105980008093580215B80E943604A8958D2D0E9468
:105990007A04FC01E01BF10B8091580290915902AE
:1059A0008B51964020F0E532F1050CF48EC081E079
:1059B000ED32F8076CF48091580290915902845DA1
:1059C000904308F489CF81E0ED32F8070CF47DC0F4
:1059D0008091580290915902019729F425E0E53110
:1059E000F2070CF072C0E0905802F0905902EE0CF1
:1059F000FF1C00E010E0E0928302F092840200932A
:105A0000850210938602CF0168E270E00E94D93DC2
:105A1000CB018E0F9F1F0E94D11DA0E0B0E0BC0102
:105A2000CD01A80197010E949A3D60938302709373
:105A30008402809385029093860260937B02709328
:105A40007C0280937D0290937E020E94701A86E20F
:105A500090E00E94973E282F332727FD309568EE6F
:105A600073E0621B730B882777FD8095982F209138
:105A70007B0230917C0240917D0250917E020E9417
:105A80009A3D20E137E240E050E00E94EC3D209357
:105A90007B0230937C0240937D0250937E0288E02B
:105AA00080932102EFE7F2E020937F02318342836B
:105AB000538380918D0280938E0210928A021092FD
:105AC0008902C0928B02D0928C0217B818B814B811
:105AD00015B8CDB7DEB7ECE00C944B3EA8E1B0E0D2
